:100000001BC200004AC2000048C2000046C20000F5
:1000100044C2000042C2000040C200003EC20000D4
:100020003CC200003AC2000038C2000036C20000E4
:1000300034C2000032C2000030C200002EC20000F4
:100040002CC200002AC2000028C2000026C2000004
:1000500024C2000022C2000020C200000C94BA0991
:100060001CC200000C9474080C944B0816C20000CB
:1000700014C2000012C2000010C200000EC2000034
:100080000CC200000AC2000008C2000006C2000044
:1000900004C2000002C2000000C20000FEC1000055
:1000A000FCC10000FAC10000F8C10000F6C1000068
:1000B000F4C10000F2C10000F0C10000EEC1000078
:1000C000ECC10000EAC10000E8C10000E6C1000088
:1000D000E4C10000E2C10000E0C10000DEC1000098
:1000E000DCC10000F2100F11381150118011A31162
:1000F000C711E111FF11D908DC08CB08CF08D308DC
:100100001309E008E408EA08EE08F208F808FC0819
:100110000009130906090A090E0900407A10F35A6A
:1001200000A0724E18090010A5D4E80000E8764837
:10013000170000E40B54020000CA9A3B000000E1E3
:10014000F505000080969800000040420F00000076
:10015000A08601000000102700000000E803000056
:1001600000006400000000000A0000000000010020
:10017000000000002C76D888DC674F0823DFC1DF41
:10018000AE59E1B1B796E5E3E453C63AE651997644
:1001900096E8E6C28426EB898C9B62ED407C6FFC7E
:1001A000EFBC9C9F40F2BAA56FA5F490055A2AF7C0
:1001B0005C936B6CF9676DC11BFCE0E40D47FEF5C9
:1001C00020E6B500D0ED902E030094357705008031
:1001D000841E080000204E0A000000C80C33333390
:1001E000330F986E12831141EF8D2114893BE65530
:1001F00016CFFEE6DB18D1844B381BF77C1D901D13
:10020000A4BBE424203284725E228100C9F124EC74
:10021000A1E53D2700000A0B02090C0D0E0807039B
:1002200004010000000000000000000000000000C9
:1002300000000000000000000000000000000000BE
:10024000121110000000000000000000000000007B
:1002500000000000000000000000005EBCE2613F02
:10026000DD83C29C7E20A3FD1F419DC3217FFCA294
:10027000401E5F01E3BD3E6082DC237D9FC1421CC6
:10028000FEA0E1BF5D0380DE3C62BEE0025CDF8178
:10029000633D7C22C09E1D43A1FF4618FAA4277926
:1002A0009BC584DA3866E5BB5907DB856739BAE454
:1002B00006581947A5FB7826C49A653BD987045A86
:1002C000B8E6A7F91B45C6987A24F8A6441A99C738
:1002D000257B3A6486D85B05E7B98CD2306EEDB3E6
:1002E000510F4E10F2AC2F7193CD114FADF3702E14
:1002F000CC92D38D6F31B2EC0E50AFF1134DCE9046
:10030000722C6D33D18F0C52B0EE326C8ED0530DF7
:10031000EFB1F0AE4C1291CF2D73CA947628ABF5A5
:1003200017490856B4EA6937D58B5709EBB53668D3
:100330008AD495CB2977F4AA4816E9B7550B88D605
:10034000346A2B7597C94A14F6A8742AC896154BB7
:10035000A9F7B6E80A54D7896B35000020002300BE
:10036000260029002C002F003200000100000301AC
:100370000601090105050505070508080808020228
:1003800002020A0A0808040404040101010101012F
:1003900001010303030303030303040707070C0C12
:1003A0000C0C0C0C0C0C02020202060606060606D9
:1003B00006060B0B0B0B0B0B0B0B0102102020087E
:1003C00008102040102040800201020108040201B0
:1003D000010204081020408080402010080402011F
:1003E0008004020180402010080402010804020178
:1003F00001020408102040800102040810204080FF
:1004000000002100240027002A002D0030003300C6
:1004100001010000040107010A010000220025007B
:1004200028002B002E0031003400020100000501DD
:1004300008010B01D212841311241FBECFEFD1E2A9
:10044000DEBFCDBF00E00CBF23E0A6E7B2E001C0F5
:100450001D92A13DB207E1F712E0A0E0B2E0E2E0B8
:10046000F5E300E00BBF02C007900D92A637B1077D
:10047000D9F712E0CBE1D2E000E006C021970109F4
:10048000802FFE010E942F18CA31D10780E0080793
:10049000A9F70E94AB0B0C94701AB2CDCF92DF92E9
:1004A000EF92FF920F931F93CF93DF936C017A012A
:1004B0008B01C0E0D0E0CE15DF0589F0D8016D9149
:1004C0008D01D601ED91FC910190F081E02DC601E6
:1004D0001995892B11F47E0102C02196ECCFC7013A
:1004E000DF91CF911F910F91FF90EF90DF90CF9010
:1004F00008950E945C1ACF93DF93EC018881998163
:10050000009711F00E94E018198218821D821C8247
:100510001B821A82DF91CF910895E6EEF2E0A08966
:10052000B18982E08C93A089B1891C92A485B5859C
:100530001C92A685B78580E18C93108EA489B5891D
:1005400086E08C93A289B3898C9180618C93A28977
:10055000B3898C9188608C93A289B3898C918068CF
:100560008C930288F389E02D80818F7D80830895AC
:10057000AF92BF92CF92DF92EF92FF920F931F93B1
:10058000CF93DF938B01BC01809188039091890305
:100590000E94CB0A40E06EEB809188039091890322
:1005A000B9D7E801680189E0C80ED11CA090880382
:1005B000B090890388E0E82EF12C01E010E0C5013D
:1005C00056D78111102B000F81E0E81AF108B9F716
:1005D0001993CC15DD0551F780918803909189031B
:1005E0000E94F60A91E0813009F090E0892FDF91B6
:1005F000CF911F910F91FF90EF90DF90CF90BF9020
:10060000AF9008950F931F93CF93DF938C01EB016D
:100610008091880390918903E9D78823A1F0BE01D6
:10062000C801A6DF882379F0DE0189E0E0E081508F
:1006300039F09D91E927F0E0E65AFD4FE491F7CFBC
:1006400081E09885E91380E0DF91CF911F910F91B0
:100650000895FF920F931F93CF93DF93CDB7DEB72B
:1006600029970FB6F894DEBF0FBECDBF8C01BE0137
:100670006F5F7F4FC7DFF82E882309F458C0F80159
:100680008081803109F453C08FE58D838091880388
:1006900090918903ABD7B801809188039091890329
:1006A0007AD740E06EE4809188039091890332D735
:1006B00040E06B8180918803909189032BD740E0C3
:1006C0006C81809188039091890324D7F8018081FF
:1006D000803139F040E06D818091880390918903E9
:1006E00019D7809188039091890380D7B8018091B0
:1006F0008803909189034FD74091830368E48091E8
:1007000088039091890306D764E170E080E090E06F
:10071000EDD580918303882329F06AE070E080E0C2
:1007200090E0E4D580918803909189035FD78F2D65
:1007300029960FB6F894DEBF0FBECDBFDF91CF91E3
:100740001F910F91FF900895CF93DF93CDB7DEB740
:1007500029970FB6F894DEBF0FBECDBFFC012081F4
:100760002031C9F0BE016F5F7F4F4CDF882389F0D5
:100770008D818F3361F020F48F3159F489E00CC002
:100780008F3519F08F3739F004C08BE005C08AE04F
:1007900003C080E001C08CE029960FB6F894DEBF5C
:1007A0000FBECDBFDF91CF910895643008F063E0B4
:1007B0009091A903691710F06FEF690FE62FF0E031
:1007C000EA56FC4F9489682F690F606886E993E0C8
:1007D000C0C7EF92FF920F931F93CF93DF93EC016B
:1007E000623018F08F8588608F876B8B1C8A80E45D
:1007F0008D8B80E18E8B80E58F8B61E08C813AD58B
:100800008D818F3F11F061E035D561E08E8132D569
:100810007E0187E0E80EF11C00E010E08F8584FD8A
:1008200003C084E090E002C088E090E00817190758
:1008300044F461E0F70181917F011CD50F5F1F4FE8
:10084000EDCF8BE39DE00197F1F760E08C8182D4DE
:1008500060E08E817FD48D818F3F11F060E07AD48B
:100860006F8564FD19C063E0CE01F6D60BE416E493
:10087000C8010197F1F763E0CE01EED6C8010197F8
:10088000F1F763E0CE01E8D683E592E00197F1F756
:1008900062E0CE01E1D613C06062CE015AD78BE48C
:1008A00096E40197F1F76F856062CE0152D783E538
:1008B00092E00197F1F76F856062CE014AD76F85AC
:1008C0006062CE0146D784E0888B6CE0CE0141D7D0
:1008D00061E0CE013ED78BE39FE10197F1F782E023
:1008E000898B66E0CE01DF91CF911F910F91FF9030
:1008F000EF902FC70F931F93CF93DF93CDB7DEB742
:1009000029970FB6F894DEBF0FBECDBF8C01BE0194
:100910006F5F7F4F77DE882361F1298148E0249F54
:10092000B00111249A81292F30E0322F2227330F72
:10093000330F330F262B372BF80180818031E1F400
:10094000688570E08F81AB01481B5109CA019695FB
:10095000982F8827979587950E94FA17CB01409783
:10096000207F53E0220F331F5A95E1F7820F931F28
:1009700004C080E894EE01C0C90129960FB6F8942E
:10098000DEBF0FBECDBFDF91CF911F910F910895B4
:100990000F931F93CF93DF93EC0188819981009788
:1009A00029F02A813B812617370788F48B016F5F76
:1009B0007F4F0E947819009761F0998388831B8389
:1009C0000A832C813D81232B11F4FC01108281E0EC
:1009D00001C080E0DF91CF911F910F910895EF92B8
:1009E000FF920F931F93CF93DF93EC01FB01848160
:1009F0009581E080F1800C811D81E114F104A9F062
:100A00000097A9F0080F191FB801CE01C1DF882394
:100A100061F0288139818C819D81B701820F931FFC
:100A20000E94691A1D830C8302C0CE0164DDCE01D1
:100A3000DF91CF911F910F91FF90EF900895EF926A
:100A4000FF920F931F93CF93DF93EC017B018A01F9
:100A5000BA019EDF811103C0CE014DDD07C01D83A9
:100A60000C83B701888199810E94691ACE01DF91B8
:100A7000CF911F910F91FF90EF900895CF93DF9347
:100A8000EC016115710551F0FB0101900020E9F7BF
:100A90003197AF01461B570BD2DF01C02CDDCE01D1
:100AA000DF91CF910895FC01808191810C94E01831
:100AB000FB01DC0111961C921E9213961C921E9251
:100AC000129715961C921E9214978617970741F05D
:100AD000608171816115710519F044815581AFCF35
:100AE0000895FC01118210821382128215821482F1
:100AF0006115710549F0FB0101900020E9F731977C
:100B0000AF01461B570B9BCF0895DC01ED91FC9183
:100B1000DB0114964D915C9115976D917C9102804B
:100B2000F381E02D19946115710579F0FB010190B5
:100B30000020E9F73197AF01461B570BDC01ED911F
:100B4000FC910280F381E02D199480E090E00895FB
:100B5000BC0186EE92E0D9DF63E572E086EE92E0BA
:100B6000E2DF8091A7029091A802813523E29207EB
:100B700009F480C024F48233934259F008958235F9
:100B800023E2920709F47EC08A35934209F47EC0BD
:100B900008958091A9029091AA029093D90280931E
:100BA000D8028091AB029091AC029093DB028093CB
:100BB000DA028091AD029091AE029093DD028093B3
:100BC000DC028091AF029091B0029093DF0280939B
:100BD000DE028091B1029091B2029093E102809383
:100BE000E0028091B3029091B4029093E30280936B
:100BF000E2028091B5029091B6029093E502809353
:100C0000E4028091B7029091B8029093CB02809356
:100C1000CA028091B9029091BA029093CD0280935A
:100C2000CC028091BB029091BC029093CF02809342
:100C3000CE028091BD029091BE029093D10280932A
:100C4000D0028091BF029091C0029093D302809312
:100C5000D2028091C1029091C2029093D5028093FA
:100C6000D4028091C3029091C4029093D7028093E2
:100C7000D60208958091C502811113C081E080934E
:100C8000C502089581E08093C60208958091C5024F
:100C9000882339F08091C602882319F081E080937F
:100CA000C70208958F929F92AF92BF920F931F93A6
:100CB000CF93DF93CDB7DEB7A1970FB6F894DEBF21
:100CC0000FBECDBF19A2423008F44AE08E010F5D7D
:100CD0001F4F842E912CA12CB12CA50194010E94B0
:100CE0000D18E62FB901CA0101501109EA3014F4B8
:100CF000E05D01C0E95CD801EC93232B242B252B6C
:100D000061F7B80186EE92E00EDFA1960FB6F89477
:100D1000DEBF0FBECDBFDF91CF911F910F91BF906E
:100D2000AF909F908F900895CF92DF92EF92FF92B5
:100D3000CF93DF9397FF20C06B017C01E091E60227
:100D4000F091E7020190F081E02D6DE286EE92E0F5
:100D50001995EC0166277727CB016C197D098E095F
:100D60009F094AE09FDF8C0F9D1FDF91CF91FF907D
:100D7000EF90DF90CF9008954AE0DF91CF91FF9000
:100D8000EF90DF90CF908ECFFC01918D828D9817E0
:100D900061F0828DDF01A80FB11D5D968C91928D5F
:100DA0009F5F9F73928F90E008958FEF9FEF08955C
:100DB000FC01918D828D981731F0828DE80FF11D25
:100DC000858D90E008958FEF9FEF0895FC01918D40
:100DD000228D892F90E0805C9F4F821B91098F7339
:100DE0009927089586EE92E0F1DF21E0892B09F43E
:100DF00020E0822F0895FC01848DDF01A80FB11D32
:100E0000A35ABF4F2C91848D90E001968F73992740
:100E1000848FA689B7892C93A089B1898C9180642D
:100E20008C93938D848D981306C00288F389E02DEE
:100E300080818F7D80830895EF92FF920F931F939F
:100E4000CF93DF93EC0181E0888F9B8D8C8D98137D
:100E500005C0E889F989808185FD23C0F62E0B8DB8
:100E600010E00F5F1F4F0F731127E02E8C8DE812DB
:100E70000BC00FB607FCFACFE889F989808185FF9E
:100E8000F5CFCE01B8DFF2CF8B8DFE01E80FF11D5B
:100E9000E35AFF4FF0820B8FEA89FB8980818062E1
:100EA00007C0EE89FF896083E889F98980818064C1
:100EB000808381E090E0DF91CF911F910F91FF90AF
:100EC000EF900895CF93DF93EC01888D8823C1F0D4
:100ED000EA89FB89808185FD05C0A889B9898C9143
:100EE00086FD0EC00FB607FCF5CF808185FFF2CFDF
:100EF000A889B9898C9185FFEDCFCE017CDFE8CF41
:100F0000DF91CF9108953FB7F8948091C9039091F4
:100F1000CA03A091CB03B091CC0326B5A89B05C012
:100F20002F3F19F00196A11DB11D3FBFBA2FA92F68
:100F3000982F8827820F911DA11DB11DBC01CD01E5
:100F400042E0660F771F881F991F4A95D1F70895D1
:100F50000895CF92DF92FF920F931F93CF93DF9369
:100F60001F921F92CDB7DEB7FF24F39486EE92E076
:100F70002DDF892B09F452C086EE92E005DF6C016B
:100F80008CE2C816D10439F1C9821A820091B203E9
:100F90001091B3030F5F1F4FB8018EEA93E0F8DCA6
:100FA000882399F02091AE033091AF038091B20372
:100FB0009091B303BE016F5F7F4F820F931F0E941A
:100FC000691A1093B3030093B2038AE0C816D104E0
:100FD00069F6F09276020091C2031091C3038091EA
:100FE000AE039091AF03009719F00E94A71303C0BE
:100FF00060E070E0CB01F801EE0FFF1FE955FD4FF7
:101000007183608365E572E08EEA93E037DD0F5F00
:101010001F4F1093C3030093C203A8CF0F900F90EC
:10102000DF91CF911F910F91FF90DF90CF900895A6
:10103000D9DE811125C080E090E0892B41F080E06D
:1010400090E0892B21F00E94000081111BC080E0FC
:1010500090E0892B41F080E090E0892B21F00E9404
:101060000000811112C080E090E0892B99F080E0AF
:1010700090E0892B79F00E940000811109C0089549
:1010800068DFD9CF0E940000E2CF0E940000EBCFC2
:101090000C94000008951F920F920FB60F92112426
:1010A0000BB60F922F933F934F935F936F937F9362
:1010B0008F939F93AF93BF93EF93FF9386EE92E04E
:1010C0009ADEFF91EF91BF91AF919F918F917F91A8
:1010D0006F915F914F913F912F910F900BBE0F90A9
:1010E0000FBE0F901F9018951F920F920FB60F9280
:1010F00011240BB60F922F938F939F93EF93FF932F
:10110000E091F602F091F7028081E091FC02F0910B
:10111000FD0282FD12C090818091FF028F5F8F736C
:1011200020910003821751F0E091FF02F0E0EA51B4
:10113000FD4F958F8093FF0201C08081FF91EF9159
:101140009F918F912F910F900BBE0F900FBE0F901C
:101150001F901895362F90E0FC01EC5EFD4F4491F6
:10116000FC01E654FC4F2491FC01EC58FC4F949197
:10117000992309F46BC0442309F455C050E0FA01E7
:101180003197E231F10508F04EC08827E558FF4F4E
:101190008F4F0C942F18809180008F7707C080911B
:1011A00080008F7D03C080918000877F80938000C6
:1011B0003AC084B58F7702C084B58F7D84BD33C0BB
:1011C0008091B0008F7703C08091B0008F7D8093B5
:1011D000B00029C0809190008F7707C08091900067
:1011E0008F7D03C080919000877F809390001BC00B
:1011F0008091A0008F7707C08091A0008F7D03C0F1
:101200008091A000877F8093A0000DC08091200175
:101210008F7707C0809120018F7D03C080912001CE
:10122000877F80932001E92FF0E0EE0FFF1FE65E3D
:10123000FB4FA591B4918FB7F894EC91311103C095
:1012400020952E2301C02E2B2C938FBF0895CF9372
:10125000DF93EC0160E08E817DDF61E08E817ADFDB
:1012600060E08E8177DF8BE891E00197F1F7DF9105
:10127000CF910895CF93DF9390E0FC01E654FC4FAB
:101280002491FC01EC58FC4F8491882361F190E09B
:10129000880F991FFC01E050FC4FC591D491FC01CF
:1012A000E65EFB4FA591B491611109C09FB7F89418
:1012B0008881209582238883EC912E230BC0623095
:1012C00061F49FB7F8943881822F809583238883B7
:1012D000EC912E2B2C939FBF06C08FB7F894E8811A
:1012E0002E2B28838FBFDF91CF9108958F929F92ED
:1012F000AF92BF92CF92DF92EF92FF926B017C018F
:1013000002DE4B015C01C114D104E104F104E9F0F7
:10131000FADDDC01CB0188199909AA09BB09883ECD
:101320009340A105B10578F321E0C21AD108E10884
:10133000F10888EE880E83E0981EA11CB11CC11430
:10134000D104E104F10421F7DECFFF90EF90DF90AC
:10135000CF90BF90AF909F908F9008952FB7F89443
:101360006091C5037091C6038091C7039091C80333
:101370002FBF08951F920F920FB60F9211242F9333
:101380003F938F939F93AF93BF938091C5039091A9
:10139000C603A091C703B091C8033091C40323E0F2
:1013A000230F2D3720F40196A11DB11D05C026E89D
:1013B000230F0296A11DB11D2093C4038093C50382
:1013C0009093C603A093C703B093C8038091C90349
:1013D0009091CA03A091CB03B091CC030196A11DBB
:1013E000B11D8093C9039093CA03A093CB03B0931C
:1013F000CC03BF91AF919F918F913F912F910F900F
:101400000FBE0F901F901895EF92FF920F931F93AE
:10141000CF93DF938B01BC01990F880B990B84DC70
:10142000780182E0E80EF11CC1E0D0E0F801808193
:101430009181C817D90784F464E772E086EE92E0E0
:1014400072DBF701619171917F01072E000C880B0F
:10145000990B6ADC2196EACF63E572E086EE92E0B2
:10146000DF91CF911F910F91FF90EF905CCBFC012A
:1014700090810180F281E02DF8948181892B818314
:101480002281892F809528232283A7E0B0E011973D
:10149000F1F7218182238183A3E2B0E01197F1F774
:1014A00080817894EFECF0E03197F1F7982381E0B8
:1014B00009F480E00895FC0190810180F281E02D23
:1014C000892F809560FF12C0F89422818223828345
:1014D0008181892B8183A3E2B0E01197F1F78281AA
:1014E000982B9283789487ED90E011C0F894228134
:1014F000822382838181892B8183AFEFB0E01197B2
:10150000F1F78281982B928378948FE090E0019795
:10151000F1F70895CF92DF92EF92FF920F931F930E
:10152000CF93DF931F92CDB7DEB76C01E62E08E0B4
:1015300010E0FF24F39461E08F2D8E2109F460E028
:10154000C6014983B8DFFF0C01501109498101151B
:10155000110589F7411115C0F894D6011196ED9146
:10156000FC91129791818C918095892381831196AA
:10157000ED91FC91129792818C91809589238283C1
:1015800078940F90DF91CF911F910F91FF90EF9082
:10159000DF90CF900895CF92DF92EF92FF920F935A
:1015A0001F93CF93DF931F92CDB7DEB78C01F62E3A
:1015B00040E065E57983AEDFCF2C7981D72E7601C7
:1015C00088E0E80EF11CF60161916F0140E0C8016E
:1015D000A1DFCE14DF04B9F70F90DF91CF911F91F7
:1015E0000F91FF90EF90DF90CF900895FC019081D4
:1015F0000180F281E02DF8948181292F20958223AA
:10160000818378948DE743E050E0815021F1DA0145
:101610001197F1F730813923C1F3F8948281822345
:1016200082838181892B81837894ABE7B7E011971E
:10163000F1F7F894818128232183A3E1B1E0119788
:10164000F1F78081982381E009F080E07894E3E667
:10165000F6E03197F1F70895CF92DF92EF92FF9283
:101660000F931F93CF93DF937C016C0187E0C80E2B
:10167000D11CC0E0D0E0062F10E0B8010C2E02C053
:10168000759567950A94E2F76170F60181916F0193
:1016900061DD2196C430D10581F7C701DF91CF917B
:1016A0001F910F91FF90EF90DF90CF90D0CDCF9210
:1016B000DF92EF92FF920F931F93CF93DF93EC0192
:1016C000F62E642F8C8146DD8D818F3F11F060E016
:1016D00041DD8F850F2D10E084FF23C06E0187E070
:1016E000C80ED11CE12CF12CB8010E2C02C075954E
:1016F00067950A94E2F76170F60181916F012ADD26
:10170000FFEFEF1AFF0A88E0E816F10469F7CE014F
:10171000DF91CF911F910F91FF90EF90DF90CF90CD
:1017200096CDB80184E0759567958A95E1F7CE016D
:1017300093DF6F2DCE01DF91CF911F910F91FF901D
:10174000EF90DF90CF9088CF41E0B1DF81E090E073
:10175000089540E0ACCFCF93DF93CDB7DEB7C5544B
:10176000D1090FB6F894DEBF0FBECDBF789484B513
:10177000826084BD84B5816084BD85B5826085BD8D
:1017800085B5816085BD80916E00816080936E001B
:10179000109281008091810082608093810080910D
:1017A00081008160809381008091800081608093BE
:1017B00080008091B10084608093B1008091B0007E
:1017C00081608093B000809191008260809391004D
:1017D0008091910081608093910080919000816060
:1017E000809390008091A10082608093A1008091FD
:1017F000A10081608093A1008091A000816080930E
:10180000A0008091210182608093210180912101BB
:10181000816080932101809120018160809320016B
:1018200080917A00846080937A0080917A0082604F
:1018300080937A0080917A00816080937A00809111
:101840007A00806880937A001092C10062E086E995
:1018500093E00E94E90360E081E00E94D5031BA6AB
:101860001AA61DA61CA61FA61EA6CE0101961C0127
:101870008C0122E044E06DE37AE087ED9EE348D7F7
:101880003E01AAE26A0E711CBC01C301F7D865E3F0
:1018900072E0C10126D92E01B2E24B0E511CB101FA
:1018A000C20106D9B301C2019AD8BC0186E993E00E
:1018B0002CD9C201F8D8C101F6D8C301F4D861E02F
:1018C00087E00E94D5036FE372E086E993E02BD9AD
:1018D00068EB7BE080E090E009DD61E086E993E081
:1018E00038DF8BE39FE10197F1F70E948D021092A0
:1018F000000261E089E0BEDC61E084E0BBDC61E025
:1019000089E0B8DC60E089E025DC0E948D02E0918E
:101910008803F0918903138615861486DF011B96D0
:1019200033961E92AE17BF07E1F710928703CC24BF
:10193000C39401E027E0D22ED40CE0908803F0900D
:101940008903F701858581115AC0C7014FDE8823BD
:1019500009F455C040E060EFC701DCDDBB24B3945F
:10196000A12C912C11E0C70182DD682FC7012396BD
:101970006FAF23977CDD23966FAD2397613019F409
:101980008130C1F434C02A2D30E068131CC0F70147
:101990008385181730F4E20FF31F83818B2151F4F4
:1019A00002C0181739F060E0193060F4D7011C96B6
:1019B0001C9308C0F701EA0DF11D83818B298383F5
:1019C00061E009C0912EF701E20FF31F93818B2D87
:1019D000809589238383C7016EDD1F5FBB0C19F4DB
:1019E000A394BB24B394B7E0BA1508F0BCCF11346C
:1019F00030F0F701938691102DC5C5862BC5D70110
:101A00001B961C921B971D961C921D971C961C9250
:101A100085E192E00E9429038DE092E00E94290373
:101A20009DDC28EE33E040E050E00E940D1830933A
:101A300078022093770288EE882E83E0982EA12CDE
:101A4000B12C8091880390918903D0DD40E06CEC4B
:101A500080918803909189035DDD4091830364E464
:101A6000809188039091890355DD809185038823B7
:101A7000A1F0E0918403E950E33040F4F0E0EE0F90
:101A8000FF1FE95FFD4F6081718102C06EEE72E061
:101A9000072E000C880B990B29DC85E192E00E944F
:101AA0007A048138B4EE9B076CF0BC01990F880B67
:101AB000990B0E944D1620E030E040E05CE30E946C
:101AC000AC1604C060E070E08EEF92EC609393027D
:101AD0007093940280939502909396028DE092E029
:101AE0000E947A048138E4EE9E076CF0BC01990FE5
:101AF000880B990B0E944D1620E030E040E05CE33B
:101B00000E94AC1604C060E070E08EEF92EC60932F
:101B10009702709398028093990290939A02209171
:101B200093023091940240919502509196020E9446
:101B3000611720E030E040E05FE30E94AC16609364
:101B40009B0270939C0280939D0290939E02109141
:101B5000C80204DCA50194010E940D188091810245
:101B6000909182024496092E000CAA0BBB0B2817F9
:101B700039074A075B0708F412C167E472E086EE92
:101B800092E00E94930563E572E086EE92E00E9487
:101B90009305E4DBA50194010E940D18CA01B90167
:101BA0004AE080D863E572E086EE92E00E949305F9
:101BB00064E170E080E090E0B7D863E572E086EE23
:101BC00092E00E94930560918102709182026C5EA6
:101BD0007F4F072E000C880B990BA6D863E572E0A7
:101BE00086EE92E00E949305B9DBA50194010E9464
:101BF0000D183093820220938102112309F497C0BB
:101C000066E572E086EE92E00E94930563E572E07D
:101C100086EE92E00E94930580917D0290917E0273
:101C2000A0917F02B09180028EAB9FABA8AFB9AFFD
:101C3000C0909302D0909402E0909502F0909602AA
:101C40006091910270919202072E000C880B990B03
:101C50000E944D1622966CAF7DAF8EAF9FAF22973C
:101C6000A70196016EA97FA988AD99AD0E94601762
:101C70002AE939E949E95FE30E94AC166AAF7BAF14
:101C80008CAF9DAF60918E0270918F02072E000C79
:101C9000880B990B0E944D16A70196010E946017B0
:101CA0002AE939E949E151E40E94AC169B01AC01F3
:101CB0006AAD7BAD8CAD9DAD0E9461176AAF7BAF05
:101CC0008CAF9DAF2EA93FA948AD59ADCA01B9014E
:101CD0000E946117A70196010E9460172091790266
:101CE00030917A0240917B0250917C020E946017F1
:101CF00020E932EC45EF5CE30E94AC169B01AC019D
:101D00006AAD7BAD8CAD9DAD0E9461179B01AC01AE
:101D100022966CAD7DAD8EAD9FAD22970E9461176E
:101D20000E94C517709392026093910204C01092B2
:101D300092021092910280917D0290917E02A09178
:101D40007F02B09180028093790290937A02A093EF
:101D50007B02B0937C028091930290919402A091B7
:101D60009502B091960280937D0290937E02A0939B
:101D70007F02B09380028091910290919202853609
:101D800091053CF0A4E6B0E0B0939202A0939102DA
:101D900006C097FF04C01092920210929102C09068
:101DA0009302D0909402E0909502F090960260E049
:101DB00082E00E94D50320E030E04EEF52ECC701F4
:101DC000B60165D78823C9F162E672E0CE01C096FC
:101DD0000E9471051BA61AA61DA61CA61FA61EA65C
:101DE000810122E044E0C701B60192D4BC01C301E5
:101DF0000E943E0564E672E0C1010E947105B101D6
:101E0000C2010E945805B301C2010E94EF04BE0145
:101E1000605D7F4F0E94EF04BC0186E993E00E9461
:101E20008505C2010E945305C1010E945305C301EB
:101E30000E945305CE01C0961EC069E672E0C30140
:101E40000E94710564E672E0C1010E947105B10152
:101E5000C2010E945805B301C2010E94EF04BC01F7
:101E600086E993E00E948505C2010E945305C101E5
:101E70000E945305C3010E94530561E082E00E9465
:101E8000D50320E030E04EEF52ECC701B601FFD69B
:101E90008823C9F162E672E0CE01C0960E94710506
:101EA0001BA61AA61DA61CA61FA61EA6810122E01F
:101EB00044E0C701B6012CD4BC01C3010E943E0519
:101EC0006FE672E0C1010E947105B101C2010E947A
:101ED0005805B301C2010E94EF04BE01605D7F4F4F
:101EE0000E94EF04BC0186E993E00E948505C201CF
:101EF0000E945305C1010E945305C3010E9453056E
:101F0000CE01C0961EC069E672E0C3010E94710551
:101F10006FE672E0C1010E947105B101C2010E9429
:101F20005805B301C2010E94EF04BC0186E993E0A9
:101F30000E948505C2010E945305C1010E945305FC
:101F4000C3010E9453050ADAA50194010E940D18ED
:101F500080918302909184020196092E000CAA0BB5
:101F6000BB0B281739074A075B0708F442C0F6D9AC
:101F7000A50194010E940D183093840220938302DE
:101F80008AE0F10111928A95E9F785E090E09A8361
:101F9000898360919302709194028091950290914F
:101FA000960223962FAF239724963FAF249725962A
:101FB0004FAF259726965FAF2697E7D77C836B8335
:101FC00060919702709198028091990290919A0283
:101FD000DCD77E836D8378876F8323962FAD23971D
:101FE00024963FAD24973A872987B10184EF93E087
:101FF0000BDAB4D9A50194010E940D1880918502D5
:10200000909186020196092E000CAA0BBB0B281793
:1020100039074A075B0708F46BC0A0D9A5019401F2
:10202000FCD73093860220938502D101E0E21D9215
:10203000EA95E9F780E190E09A8389838091D8025C
:102040009091D9029C838B838091DA029091DB027C
:102050009E838D838091DC029091DD0298878F832F
:102060008091DE029091DF029A8789878091E00259
:102070009091E1029C878B878091E2029091E3022C
:102080009E878D878091E4029091E502988B8F87DF
:102090008091CA029091CB029A8B898B8091CC025D
:1020A0009091CD029C8B8B8B8091CE029091CF0230
:1020B0009E8B8D8B8091D0029091D102988F8F8BC7
:1020C0008091D2029091D3029A8F898F8091D4020D
:1020D0009091D5029C8F8B8F8091D6029091D702E0
:1020E0009E8F8D8F38A32F8FB1018EEF93E08CD907
:1020F00035D9A501940191D78091870290918802EA
:102100000196092E000CAA0BBB0B281739074A07AA
:102110005B0708F441C022D9A50194017ED7309312
:10212000880220938702D101E4E11D92EA95E9F744
:102130008AE090E09A83898380918E0290918F0249
:102140009C838B838091900290E09E838D8380910D
:10215000C50290E098878F838091C60290E09A87AD
:1021600089878091C70290E09C878B878091C80205
:1021700090E09E878D878091C90290E0988B8F8731
:1021800080919102909192029A8B898B3C8B2B8B40
:10219000B10182EF93E038D980917602882399F0DB
:1021A0006EEA73E0C1010E945805C1010E94A805B2
:1021B000C1010E94530565E572E08EEA93E00E943A
:1021C0003E0510927602E0918D028E2F90E0FC0188
:1021D0003197E930F10508F01BC18827EE58FF4F11
:1021E0008F4F3DC78091C802811103C081E0809369
:1021F000C802B4D8683873418105910508F48DC1CF
:10220000ADD8683F7A428105910508F494C1A6D8FB
:1022100068397A438105910508F47FC18CC18091AA
:10222000C502882309F413C18091C602882309F4EA
:102230000EC194D81091DA020091DB02A50194013D
:10224000ECD69CE3199F200D11242093900210934B
:102250008E0200938F0283E080938D0281E0809351
:10226000C902AEE1B0E0B0938C02A0938B02EFC044
:10227000809190028111EBC084E080938D026ED832
:10228000A5019401CAD68091CE02BCE38B9F200D9C
:102290001124209390028091DC029091DD0222C0F3
:1022A0005DD8A5019401B9D68091900290E0A0E09C
:1022B000B0E0281739074A075B0708F4C8C085E073
:1022C00080938D024BD8A5019401A7D68091D002AE
:1022D000ECE38E9F200D1124209390028091DE026A
:1022E0009091DF0290938F0280938E0281E0809321
:1022F000C80262E370E080E090E00E947609A7C027
:102300002DD8A501940189D68091900290E0A0E09B
:10231000B0E0281739074A075B0708F498C086E041
:1023200080938D021BD8A501940177D68091D202AB
:10233000FCE38F9F200D1124209390028091E002F6
:102340009091E102CFCF0AD8A501940166D6809181
:10235000900290E0A0E0B0E0281739074A075B0739
:1023600008F475C087E080938D020E94AE09A50134
:10237000940153D68091D4029CE3899F200D1124AF
:10238000209390028091E2029091E302ABCF809182
:10239000C702882309F45BC088E080938D020E9405
:1023A000AE09A501940139D68091D602ACE38A9F8B
:1023B000200D1124209390028091E4029091E50277
:1023C00091CF0E94AE09A501940127D68091900279
:1023D00090E0A0E0B0E0281739074A075B0748F40F
:1023E0001092C902ECE3F0E0F0938C02E0938B02D0
:1023F0002EC01092C802F9E0F0938D027ACF1092AD
:10240000C8021092C90210928C0210928B021FC057
:102410008091C5028823D9F08091D8029091D90289
:102420000097A9F02091DA023091DB02232B79F09A
:102430002091CC023091CD02232B49F090938F0252
:1024400080938E0281E08093C80280938D020E9467
:102450001808F7CAD70113968C91882309F4CFCABC
:10246000F7013396D20181918D93A615B705D9F75F
:10247000D201E0E0DA1639F08D91E827F0E0E65A73
:10248000FD4FE491F7CF89A5E81357CA80918303E4
:10249000811120C08091880390918903A7D8B2014F
:1024A000809188039091890376D840E064EB809115
:1024B0008803909189032ED8809188039091890395
:1024C0000E94370AF82E80918803909189038ED854
:1024D000FF2001F1809188039091890387D8882398
:1024E00021F0B101C2010E94B802F0908403C20140
:1024F0000E94A4038F1518F48091840303C0C201C5
:102500000E94A40380938403809187038F5F80934C
:10251000870313CA00938303DDCF8091C902811121
:102520001DC081E08093C9028CE390E090938C02FF
:1025300080938B0213C08091C902882379F0109296
:10254000C90210928C0210928B02809189029091A4
:102550008A02019690938A028093890260918E028A
:1025600070918F02072E000C880B990B96D39B015C
:10257000AC016091930270919402809195029091C8
:10258000960234D587FD63CF8091C502882309F474
:102590005ECF8091890290918A02029709F057CF0D
:1025A00082E053CF1092E9021092E80288EE93E0A5
:1025B000A0E0B0E08093EA029093EB02A093EC02DB
:1025C000B093ED0281E292E09093E7028093E602FD
:1025D00085EC90E09093F3028093F20284EC90E01B
:1025E0009093F5028093F40280EC90E09093F702D0
:1025F0008093F60281EC90E09093F9028093F802C8
:1026000082EC90E09093FB028093FA0286EC90E0DB
:102610009093FD028093FC021092FF02109200033F
:10262000109201031092020360E083E00E943A09D5
:10263000EDEBF3E0E491E093B403E7E7F3E0E4913A
:10264000F0E0EE0FFF1FE65AFC4F859194919093B6
:10265000B6038093B5031092BF031092C10310928A
:10266000C003EFEBF3E0129283E0E73BF807D9F702
:1026700088EA97E0909395038093940384EB93E02A
:1026800090938903809388031092870310928303A9
:1026900089E08093840381E080938503809386039F
:1026A000109299031092980381E392E0909397031C
:1026B000809396038CE080939A038FEF80939B0323
:1026C0008DE080939C0388E080939D0382E080935B
:1026D0009E038AE080939F038BE08093A003109277
:1026E000A1031092A2031092A3031092A4031092CC
:1026F000A50361E086E993E00E94E90365E572E0E5
:102700008EEA93E00C9471058EEA93E00C945305E5
:10271000EF920F931F93CF93DF93E80147FD02C021
:1027200034E001C034E1E42F440FFF0BF7FF03C096
:10273000F195E195F109E32E022F2E2FAE0142D043
:10274000CE01DF91CF911F910F91EF9008951F93CC
:10275000FC0199278827BC01E89411911032E9F314
:10276000193010F01E30C8F31B3249F01D3241F40D
:10277000689405C012D0610F711D811D911D1191CA
:1027800010531A30B8F33EF490958095709561958A
:102790007F4F8F4F9F4F1F910895592F482F372FED
:1027A000262F660F771F881F991F660F771F881FB8
:1027B000991F620F731F841F951F660F771F881F55
:1027C000991F08954F925F926F927F929F92AF925E
:1027D000BF92CF92DF92EF92FF920F931F93CF930E
:1027E000DF93CDB7DEB729970FB6F894DEBF0FBEE3
:1027F000CDBF6A01122FB02E2BE3201720F0FF244B
:10280000F394F00E02C0BCE3FB2E0F2D27E0AE01C7
:102810004F5F5F4F64D1AC018981982F99709130DF
:1028200031F0E1FC06C0E0FE06C090E205C09DE28A
:1028300003C09BE201C090E0EE2DE07183FF3CC03D
:10284000911102C083E001C084E0811718F4212FA8
:10285000281B01C020E0E1110BC0F601822F30E2FD
:10286000882319F031938150FBCFC20ED11C20E098
:10287000992329F0D6019C93F60131966F01C60188
:102880000396E2FE0AC03EE4D6013C9341E4119671
:102890004C93119712963C9306C03EE6F6013083A6
:1028A00041E641833283FC01322F40E2332309F4B5
:1028B00042C041933150FACF82FF44C0911102C00F
:1028C00083E001C084E0811718F4212F281B01C088
:1028D00020E0E1110BC0F601822F30E2882319F0CD
:1028E00031938150FBCFC20ED11C20E0992329F0F7
:1028F000D6019C93F60131966F01C6010396E2FE64
:102900000BC039E4D6013C933EE411963C931197F9
:1029100036E412963C9307C039E6F60130833EE672
:10292000318336E63283FC01322F40E2332319F043
:1029300041933150FBCFFC01E20FF11D10828EEF6D
:102940009FEFB7C0F1E0911101C0F0E06F2F70E090
:102950001416150624F49A012F5F3F4F02C021E0A0
:1029600030E0260F371FBB2029F06B2D70E06F5F22
:102970007F4F02C060E070E0260F371F612F70E0CC
:10298000261737071CF4121B212F01C020E03E2D13
:10299000387159F4D601322F60E2332319F06D9368
:1029A0003150FBCFC20ED11C20E0FF2331F0D60105
:1029B0009C93B6016F5F7F4F6B01E1110BC0F60175
:1029C000922F30E3992319F031939150FBCFC20E2F
:1029D000D11C20E09F2D940F3A81782F7071A72E83
:1029E00084FF03C0313309F49150191624F499304F
:1029F00018F098E001C091E0E42F852F57FF02C046
:102A0000E0E080E06E2F782FE0E0F0E0AEE29A2E7A
:102A10003A01691A71082A01461A570A0B2D10E06B
:102A20001195019511096F3F8FEF780729F4D601B1
:102A30009C92C60101966C014617570784F06616F2
:102A400077066CF47F01E40CF51CA1E0B0E0AC0F5C
:102A5000BD1FEA0EFB1ED7011196BC9002C090E389
:102A6000B92E615071093196C60101967C0160173B
:102A7000710724F0D601BC926C01D5CF641775079D
:102A800041F4363320F4353321F4A11002C081E340
:102A9000B82EF601B082F701822F90E2882319F058
:102AA00091938150FBCFF701E20FF11D108280E07E
:102AB00090E029960FB6F894DEBF0FBECDBFDF9130
:102AC000CF911F910F91FF90EF90DF90CF90BF902B
:102AD000AF909F907F906F905F904F9008952830B7
:102AE00008F027E03327DA01990F311D87FD916047
:102AF00000966105710539F432602E5F3D9330E335
:102B00002A95E1F708959F3F30F0803871056105FF
:102B100009F03C5F3C5F3D93913008F08068911D67
:102B2000DF93CF931F930F93FF92EF92192F987F0C
:102B30009695E92F96959695E90FFF27EC58FE4F4D
:102B400099273327EE24FF24A701E7010590089475
:102B5000079428F4360FE71EF81E491F511D660F13
:102B6000771F881F991F0694A1F70590079428F4F2
:102B7000E70EF81E491F561FC11D770F881F991FAA
:102B8000661F0694A1F70590079428F4F80E491FD4
:102B9000561FC71FD11D880F991F661F771F0694E8
:102BA000A1F70590079420F4490F561FC71FD81F9F
:102BB000990F661F771F881F0694A9F784911095B7
:102BC000177041F0D695C79557954795F794E794B8
:102BD0001A95C1F7EAE1F1E06894159015913591E5
:102BE0006591959105907FE27395E118F10A430B89
:102BF000560BC90BD009C0F7E10CF11E431F561F3D
:102C0000C91FD01D7EF4703311F48A95E6CFE89485
:102C1000015030F0080F0AF40027021708F4202FA3
:102C20002395022F7A3328F079E37D932A95E9F7EB
:102C300010C07D932A9589F60694979567953795E8
:102C400017951794E118F10A430B560BC90BD009DD
:102C500098F023957E9173957A3308F070E37C9316
:102C60002013B8F77E9170617D9330F0839571E306
:102C70007D9370E32A95E1F71124EF90FF900F9177
:102C80001F91CF91DF91992787FD9095089540D0AE
:102C900008F481E00895E89409C097FB3EF490950C
:102CA0008095709561957F4F8F4F9F4F9923A9F025
:102CB000F92F96E9BB279395F695879577956795B4
:102CC000B795F111F8CFFAF4BB0F11F460FF1BC0F8
:102CD0006F5F7F4F8F4F9F4F16C0882311F096E98B
:102CE00011C0772321F09EE8872F762F05C0662339
:102CF00071F096E8862F70E060E02AF09A95660FF2
:102D0000771F881FDAF7880F9695879597F90895AA
:102D1000990F0008550FAA0BE0E8FEEF16161706EC
:102D2000E807F907C0F012161306E407F50798F054
:102D3000621B730B840B950B39F40A2661F0232B6D
:102D4000242B252B21F408950A2609F4A140A695E9
:102D50008FEF811D811D08950BD078C069D028F0B8
:102D60006ED018F0952309F05AC05FC01124A2C09C
:102D70007ED0A0F3959FD1F3950F50E0551F629F31
:102D8000F001729FBB27F00DB11D639FAA27F00DC4
:102D9000B11DAA1F649F6627B00DA11D661F829FEB
:102DA0002227B00DA11D621F739FB00DA11D621FD0
:102DB000839FA00D611D221F749F3327A00D611DED
:102DC000231F849F600D211D822F762F6A2F1124CF
:102DD0009F5750408AF0E1F088234AF0EE0FFF1F22
:102DE000BB1F661F771F881F91505040A9F79E3F59
:102DF000510570F014C05EC05F3FECF3983EDCF309
:102E0000869577956795B795F795E7959F5FC1F795
:102E1000FE2B880F911D9695879597F9089597F940
:102E20009F6780E870E060E008959FEF80EC089570
:102E300000240A9416161706180609060895002499
:102E40000A9412161306140605060895092E039413
:102E5000000C11F4882352F0BB0F40F4BF2B11F487
:102E600060FF04C06F5F7F4F8F4F9F4F089557FDE6
:102E70009058440F551F59F05F3F71F04795880FE8
:102E800097FB991F61F09F3F79F08795089512167F
:102E900013061406551FF2CF4695F1DF08C016162B
:102EA00017061806991FF1CF8695710561050894DC
:102EB0000895E894BB2766277727CB0197F90895F3
:102EC0005058BB27AA270ED0C1CFB2DF30F0B7DFF2
:102ED00020F031F49F3F11F41EF4A7CF0EF4E095DB
:102EE000E7FB9DCFE92FC3DF80F3BA1762077307B3
:102EF0008407950718F071F49EF5DBCF0EF4E0958A
:102F00000B2EBA2FA02D0B01B90190010C01CA01A3
:102F1000A0011124FF27591B99F0593F50F4503E4E
:102F200068F11A16F040A22F232F342F4427585F40
:102F3000F3CF469537952795A795F0405395C9F758
:102F40007EF41F16BA0B620B730B840BBAF0915010
:102F5000A1F0FF0FBB1F661F771F881FC2F70EC0AF
:102F6000BA0F621F731F841F48F487957795679582
:102F7000B795F7959E3F08F0B3CF9395880F08F06B
:102F80009927EE0F97958795089504D06894B1110D
:102F900091CF089574DF88F09F5790F0B92F99274B
:102FA000B751A0F0D1F0660F771F881F991F1AF054
:102FB000BA95C9F712C0B13081F07BDFB1E0089556
:102FC00078CF672F782F8827B85F39F0B93FCCF3D7
:102FD000869577956795B395D9F73EF4909580954A
:102FE000709561957F4F8F4F9F4F089591DE08F444
:102FF0008FEF089597FB072E16F4009406D077FD07
:1030000008D035D007FC05D03EF4909581959F4FB0
:103010000895709561957F4F0895A1E21A2EAA1B1D
:10302000BB1BFD010DC0AA1FBB1FEE1FFF1FA21778
:10303000B307E407F50720F0A21BB30BE40BF50B75
:10304000661F771F881F991F1A9469F760957095FE
:10305000809590959B01AC01BD01CF010895EE0FC5
:10306000FF1F881F8BBF0790F691E02D1994AA1BB4
:10307000BB1B51E107C0AA1FBB1FA617B70710F063
:10308000A61BB70B881F991F5A95A9F78095909595
:10309000BC01CD010895CF93DF938230910510F4E8
:1030A00082E090E0E091CF03F091D00320E030E0A7
:1030B000C0E0D0E0309711F14081518148175907A5
:1030C000C0F04817590761F482819381209719F065
:1030D0009B838A832BC09093D0038093CF0326C019
:1030E0002115310519F04217530718F49A01BE0152
:1030F000DF01EF010280F381E02DDCCF21153105E6
:1031000009F1281B390B2430310590F412968D916A
:103110009C9113976115710521F0FB0193838283C4
:1031200004C09093D0038093CF03FD01329644C036
:10313000FD01E20FF31F81939193225031092D93EA
:103140003C933AC02091CD033091CE03232B41F420
:1031500020910302309104023093CE032093CD03DB
:1031600020910102309102022115310541F42DB761
:103170003EB74091050250910602241B350BE091A9
:10318000CD03F091CE03E217F307A0F42E1B3F0B03
:103190002817390778F0AC014E5F5F4F24173507C9
:1031A00048F04E0F5F1F5093CE034093CD038193A1
:1031B000919302C0E0E0F0E0CF01DF91CF9108955C
:1031C0000F931F93CF93DF93009709F48CC0FC01FA
:1031D0003297138212820091CF031091D003011510
:1031E000110581F420813181820F931F2091CD033D
:1031F0003091CE032817390779F5F093CE03E09389
:10320000CD0371C0D80140E050E0AE17BF0750F4C5
:1032100012962D913C911397AD012115310509F1BD
:10322000D901F3CF9D01DA0133832283608171815B
:10323000860F971F8217930769F4EC012881398163
:10324000260F371F2E5F3F4F318320838A819B815A
:1032500093838283452B29F4F093D003E093CF032B
:1032600042C01396FC93EE931297ED014991599148
:103270009E01240F351FE217F30771F480819181BD
:10328000840F951F029611969C938E938281938151
:1032900013969C938E931297E0E0F0E0D80112967B
:1032A0008D919C911397009719F0F8018C01F6CF3E
:1032B0008D919C9198012E5F3F4F820F931F20911B
:1032C000CD033091CE032817390769F4309729F4DC
:1032D0001092D0031092CF0302C013821282109377
:1032E000CE030093CD03DF91CF911F910F910895ED
:1032F0006F927F928F929F92AF92BF92CF92DF9206
:10330000EF92FF920F931F93CF93DF93EC010097FF
:1033100081F4CB01DF91CF911F910F91FF90EF903E
:10332000DF90CF90BF90AF909F908F907F906F90E5
:10333000B2CEFC01E60FF71F9C0122503109E217C3
:10334000F30708F4A8C0D9010D911C911197061735
:103350001707A8F00530110508F49BC0C8010497B1
:103360008617970708F495C002501109061B170B22
:10337000019311936D937C93CF0122DF8AC05B018F
:10338000A01AB10A4C01800E911EA091CF03B091FA
:10339000D00340E050E0E12CF12C109709F44AC032
:1033A000A815B905D1F56D907C901197630182E065
:1033B000C80ED11CCA14DB0480F1A3014A195B09B1
:1033C0006A0182E0C80ED11C1296BC901297139627
:1033D000AC91B5E0CB16D10440F0B282A383518307
:1033E0004083D9016D937C930AC00E5F1F4FC301C8
:1033F000800F911FF90191838083EB2DFA2FE11447
:10340000F10431F0D7011396FC93EE93129741C06B
:10341000F093D003E093CF033CC08D919C91119722
:103420004817590708F4AC017D0112960D90BC9124
:10343000A02DB3CF8091CD039091CE03881599052F
:10344000E1F446175707C8F48091010290910202F7
:10345000009741F48DB79EB7409105025091060246
:10346000841B950BE817F907B0F4F093CE03E093B3
:10347000CD03F901718360830CC0CB010CDE7C01AC
:10348000009749F0A801BE011BD0CE0199DEC7010B
:1034900004C0CE0102C080E090E0DF91CF911F9187
:1034A0000F91FF90EF90DF90CF90BF90AF909F90E3
:1034B0008F907F906F90089581E090E0F89410C015
:1034C000FB01DC0102C001900D9241505040D8F741
:1034D0000895FB01DC0101900D920020E1F70895B1
:1034E00012E0CBE1D2E000E005C0802FFE01B7DDA5
:1034F0002196011DCC31D10780E00807B1F7F8947F
:02350000FFCFFB
:10350200010000D10380005E00BC0077012875E84D
:1035120026060100212875E8260600002100000089
:10352200001C074E02E606C406D806620700000029
:1035320000A40B4E0262726577666C6F772000778B
:10354200656C636F6D650054696D65722064726F9E
:103552007021000D0A005049442061637469766548
:103562002100DF0054313A20006572726F720054FC
:06357200323A20002C009B
:00000001FF
